:020000040000FA
:060000000A128A110E280D
:10000800FE00030EF2000408F3000A08F4000A12C6
:100018008A11CE2A0A128A111128FB01FC01FD015E
:1000280083134530840061300A128A1192240A121F
:100038008A11831790308400E4300A128A119224BE
:100048000A128A1183010A128A11F42B83120313EC
:10005800AD01AE01AF01B001B101B201A901AA0120
:1000680053035404031D39283A28F729D301D4012E
:100078000030480205300319470203184428452870
:100088004C280130C7070318C80A0030C80755288C
:100098000A128A1183230A128A1183120313C701D1
:1000A800C8014F035004031D5A285B287E28CF013E
:1000B800D001B301B4013308A6002607903E84009E
:1000C80083178001840A80010130B3070318B40A3A
:1000D8000030B407003034022A3003193302031CFD
:1000E800762877285F28FC01FD01FB01FB0A061230
:1000F800C501C6017B03031D822883289F28003081
:10010800460206300319450203188B288C289328C9
:100118000130C5070318C60A0030C6079F280630F5
:1001280045064604031D99289A289F28061610306C
:1001380083160313860083124D034E04031DA5285E
:10014800A628F729C501C601831603138601831261
:100158000313CD01CE01FB01AB01AC01AD01AE0132
:10016800AF01B001B101B201B701B8013708A6006B
:100178002607943E840083170008A700840A000815
:10018800A800003028021F3003192702031CCD28BD
:10019800CE28D3280130BF000030C000D528BF01C9
:1001A800C0013708073CA600A60A4008A8003F0877
:1001B800A700E1280310A70DA80DA60BDE282B0821
:1001C8002704AB002C082804AC000130B70703183B
:1001D800B80A0030B807003038020830031937026F
:1001E800031CF728F828BA282B080A128A11882431
:1001F8000A128A1183120313B901BA013908A60039
:100208002607A43E840083170008A700840A000874
:10021800A800003028021F3003192702031C1529E3
:1002280016291B290130BF000030C0001D29BF015D
:10023800C0013908073CA600A60A4008A8003F08E4
:10024800A70029290310A70DA80DA60B26292D08FC
:100258002704AD002E082804AE000130B9070318A2
:10026800BA0A0030BA0700303A02083003193902D6
:10027800031C3F29402902292D080A128A118824C3
:100288000A128A1183120313BB01BC013B08A600A2
:100298002607B43E840083170008A700840A0008D4
:1002A800A800003028021F3003192702031C5D290B
:1002B8005E2963290130BF000030C0006529BF01F5
:1002C800C0013B08073CA600A60A4008A8003F0852
:1002D800A70071290310A70DA80DA60B6E292F08DA
:1002E8002704AF0030082804B0000130BB0703180A
:1002F800BC0A0030BC0700303C02083003193B023E
:10030800031C872988294A292F080A128A11882458
:100318000A128A1183120313BD01BE013D08A6000B
:100328002607C43E840083170008A700840A000833
:10033800A800003028021F3003192702031CA52932
:10034800A629AB290130BF000030C000AD29BF018C
:10035800C0013D08073CA600A60A4008A8003F08BF
:10036800A700B9290310A70DA80DA60BB6293108B7
:100378002704B10032082804B2000130BD07031871
:10038800BE0A0030BE0700303E02083003193D02A5
:10039800031CCF29D029922931080A128A118824EE
:1003A8000A128A1183120313B501B6013508A60093
:1003B8002607903E8400831700080A128A118824B1
:1003C8000A128A11013083120313B5070318B60AFB
:1003D8000030B607003036022A3003193502031CF4
:0803E800F629F729DA290800C3
:1004000002308A000408840A82070034FC34003475
:100410000034003401340034FE340034AA34003493
:10042000AB340034BB340034BB340034BB34003450
:10043000BA340034AB340034AA340034BB34003452
:10044000BA340034EE340034EE340034FF34003477
:10045000FF340034FF340034FF340034FC34003403
:100460000034003401340034FE340034AA34003443
:10047000AB340034BB340034BB340034BB34003400
:10048000BA340034EB340034AA340034AB340034D2
:10049000AE340034EE340034EE340034FF34003433
:1004A000FF340034FF340034FF340034FC340034B3
:1004B0000034003401340034FE340034AA340034F3
:1004C000AB340034BB340034BB340034BB340034B0
:1004D000BA340034BB340034AA340034AE340034AF
:1004E000AE340034EE340034EE340034FF340034E3
:1004F000FF340034FF340034FF340034FC34003463
:100500000034003401340034FE340034AA340034A2
:10051000AB340034BB340034BB340034BB3400345F
:10052000BA340034AE340034AA340034BB3400345E
:10053000AE340034EE340034EE340034FF34003492
:10054000FF340034FF340034FF340034FC34003412
:100550000034003401340034FE340034AA34003452
:10056000AB340034BB340034BB340034BB3400340F
:10057000BA340034BA340034BA340034AE340034FF
:10058000BB340034AE340034EE340034FF34003475
:10059000FF340034FF340034FF340034F901FA0131
:1005A000831203138C1CD52AD62ADC2A0130D300EF
:1005B0000030D40091018C100B1CDF2AE02A3C2B68
:1005C0000608F000F1017008F7007108F8000B1040
:1005D0007808F1007708F00004300310F10CF00CFB
:1005E000FF3E031DED2A01307005F9000030710552
:1005F000FA000E08F000F1017008F5007108F6002D
:100600008E0149034A04031D062B072B2D2B790865
:100610007A04031D0C2B0D2B2D2B00307D022A306C
:1006200003197C020318152B162B2D2B7B03031D9E
:100630001A2B1B2B2D2B7C08F0007007903E84009A
:10064000750883178000840A760880000130FC0753
:100650000318FD0A0030FD07382B2A307C067D0484
:10066000031D332B342B382B0130CD000030CE004E
:100670007A08CA007908C9000B1D3F2B402B592B63
:100680000130D5000030D600FB3081000B115D0831
:10069000031D4B2B4C2B502B0510DD01DD0A592B74
:1006A00001305E05F00005087006FE397006850011
:1006B000DD018C1E5C2B5D2B7A2B1A08F000F101FA
:1006C0007008D1007108D20041305106520403195C
:1006D0006A2B6B2B6E2BDC01DC0A792B4130510627
:1006E0005204031D742B752B792B0130CF00003081
:1006F000D0008C1274088A0073088400720E830084
:10070000FE0E7E0E0900831203135C03031D892B6A
:100710008A2B992B5208A1005108A0000A128A11B5
:1007200049240A128A11023083120313A3002308FA
:10073000DC0002305C06031D9E2B9F2BF32B003048
:1007400058021430031957020318A72BA82BF32BB8
:1007500000305A020830031959020318B02BB12B8C
:10076000E92B5708A3002307600784000A128A11A7
:1007700000220A128A11A4000A128A1100220A1207
:100780008A11A5005908073C013EC92B0310A50C8E
:10079000A40CFF3E031DC62BA409A50901302405A6
:1007A000DE0000302505DF000130D9070318DA0A22
:1007B0000030DA07083059065A04031DE02BE12BFC
:1007C000E92BD901DA010130D7070318D80A003024
:1007D000D807143057065804031DEF2BF02BF32BCA
:1007E000D701D801DC0108008312031385018316A9
:1007F0000313850106309F00831203130510860141
:10080000831603138601831203130616831603133C
:100810000108C03902388100FF30831203138100C0
:100820008B168E018F013130900017308316031321
:100830009200831203139101073092008316031371
:100840008C148C168B170B178312031305148B153E
:100850008316031307138717813099001815181290
:100860008312031398178316031398168312031326
:100870001816831603131813831203131813851005
:100880000A128A112A200A128A11402C0A128A118D
:100890000E284F308312031320062104031D512C10
:1008A000522C572CA130A2002208E000872C533094
:1008B00020062104031D5D2C5E2C632C7930A200E0
:1008C0002208E000872C4B3020062104031D692CF0
:1008D0006A2C6F2C5130A2002208E000872C2B30AC
:1008E00020062104031D752C762C7B2C2930A200B8
:1008F0002208E000872C2D3020062104031D812CC6
:10090000822C872C0130A2002208E000872C0800EE
:1009100083120313A0000C1E8E2C8F2C8B2C20080E
:100920009900080064008001840A04060319003459
:040930000406932CFA
:02400E003A3F37
:00000001FF
